:020000040000FA
:100000000A128A1110280434FE00030E831203130F
:10001000E5000A08E6007F08E7000A168A11762A3A
:100020000A128A111328831603170A128A15002050
:100030000A128A11C5000A128A1501200A128A11B1
:10004000C6000A128A1502200A128A11C7000A1273
:100050008A1503200A128A11C800831603130A1294
:100060008A1103200A128A11EE0083160317C901B0
:10007000CA0183160313EA01EB01EC01ED018312BF
:100080000313E801E90183010A128A1147280A16BD
:100090008A15E4230A128A110A168A11A2210A1269
:1000A0008A118316031301178B17033088008312FC
:1000B000031388018316031385018312031385013B
:1000C0000A168A1589250A128A1183160313A401B8
:1000D000A40A01300A168A1531250A128A116430E1
:1000E0000A168A1103200A128A1183160313A40127
:1000F000A40A02300A168A1531250A128A11233001
:100100000A168A1103200A128A1103308316031774
:10011000BC000030BD00BE01BF010130C200003094
:10012000C300C001C101BA01BB01B001B1010A1293
:100130008A11EE270A128A1101300A168A15F9234C
:100140000A128A11831603179D001D08B4000A16AF
:100150008A1551240A128A11831603179D001D085F
:10016000C40070304406031DB628B728CD288B156F
:100170000A168A15EC230A128A1183160313A401A6
:10018000A40A01300A168A1531250A128A117A301A
:100190000A168A1103200A128A116D30831603177A
:1001A0004406031DD428D5282C298B110A168A153C
:1001B000EC230A128A1183160313A401A40A013046
:1001C0000A168A1531250A128A1159300A168A111F
:1001D00003200A128A113330831603179F00BB30A5
:1001E0009E00DF309D009D0BF3289E0BF3289F0B94
:1001F000F3280A168A15EC230A128A1183160313B0
:10020000A401A40A01300A168A1531250A128A119E
:1002100064300A168A1103200A128A118316031306
:10022000A401A40A02300A168A1531250A128A117D
:1002300023300A168A1103200A128A118316031723
:10024000C001C101BA01BB01BE01BF010130C20042
:100250000030C300C901CA013130440603193129F5
:100260003229682932304406031937293829682988
:100270003330440603193D293E29682934304406A9
:1002800003194329442968293530440603194929AB
:100290004A2968293630440603194F29502968290C
:1002A0003730440603195529562968293830440641
:1002B00003195B295C29682939304406031961292F
:1002C0006229682930304406031D6729682981297D
:1002D00042084304031D6D296E298129300331042E
:1002E000031D732974297B292A300A168A15EE24E6
:1002F0000A128A11812944080A168A15EE240A1264
:100300008A112A30831603174406031D8829892978
:10031000E02931303406031D8E298F29E029400859
:100320004104031D94299529E0293A083B04031D43
:100330009A299B29E0290130C0000030C1000A162B
:100340008A15EC230A128A1183160313A401A40A46
:1003500001300A168A1531250A128A110A300A1646
:100360008A1103200A128A110A30831603179D008E
:100370001D0883160313A40001300A168A153125BF
:100380000A128A117F300A168A1103200A128A1172
:1003900083160313A401A40A02300A168A15312514
:1003A0000A128A1123300A168A1103200A128A11AE
:1003B00083160317C201C3010130B0000030B10041
:1003C0002A304406031DE529E629212A3130340666
:1003D0000319EB29EC29212A40084104031DF129C6
:1003E000F229212A3A083B04031DF729F829212A7A
:1003F0000130BA000030BB00C901CA010A168A15D3
:10040000EC230A128A1183160313A401A40A0130F3
:100410000A168A1531250A128A1101300A168A1124
:1004200003200A128A1183160313A401A40A0230BE
:100430000A168A1531250A128A1183160317C2017A
:10044000C30143304406031D262A272A2C2B3130B2
:10045000340603192C2A2D2A2C2B40084104031D95
:10046000322A332A2C2B3A033B04031D382A392A1B
:100470002C2B0330BC000030BD000130C000003028
:10048000C10033309D001D08A5000A168A15EC2313
:100490000A128A1183160313A401A40A01300A1652
:1004A0008A1531250A128A116D300A168A11032025
:1004B0000A128A1183160313A401A40A02300A1631
:1004C0008A1531250A128A1133300A168A1103203F
:1004D0000A128A113330831603179F00BB309E0027
:1004E000DF309D009D0B722A9E0B722A9F0B722A91
:1004F000831603174A08A2004908A1002108303ECC
:100500009D001D08A60026089D001D0883160313E4
:10051000A00000300A168A15A4240A128A1131306C
:10052000831603179D001D0883160313A0000130D6
:100530000A168A15A4240A128A1183160317B50114
:10054000B601C32A831603173508CB3E84008317F0
:1005500000089D001D08A70027089D001D088316A0
:100560000313A000831603173508023E0A168A15E6
:10057000A4240A128A11013083160317B507031841
:10058000B60A0030B6073608803A9D004A08803A1D
:100590001D02031DCD2A49083502031CD02AD12A89
:1005A000A22A0A168A15EC230A128A11831603134B
:1005B000A401A40A01300A168A1531250A128A11EB
:1005C0000A300A168A1103200A128A110A30831689
:1005D00003179D001D0883160313A40001300A169B
:1005E0008A1531250A128A1187300A168A110320CA
:1005F0000A128A111030831603179D001D088316F6
:100600000313A40001300A168A1531250A128A1133
:100610008316031725080A168A15EE240A128A1172
:1006200083160313A401A40A02300A168A15312581
:100630000A128A1123300A168A1103200A128A111B
:1006400083160317BE01BF01C901CA01C201C3015C
:100650000130B0000030B10031304406031D312BB1
:10066000322B462B42084304031D372B382B462BD5
:1006700031309D004908CB3E84001D08831780005F
:100680000130C9070318CA0A0030CA0732304406CD
:10069000031D4B2B4C2B602B42084304031D512B95
:1006A000522B602B32309D004908CB3E84001D0840
:1006B000831780000130C9070318CA0A0030CA072F
:1006C00033304406031D652B662B7A2B4208430406
:1006D000031D6B2B6C2B7A2B33309D004908CB3ECE
:1006E00084001D08831780000130C9070318CA0A57
:1006F0000030CA0734304406031D7F2B802B942B17
:1007000042084304031D852B862B942B34309D0017
:100710004908CB3E84001D08831780000130C907BB
:100720000318CA0A0030CA0735304406031D992B46
:100730009A2BAE2B42084304031D9F2BA02BAE2BFC
:1007400035309D004908CB3E84001D08831780008A
:100750000130C9070318CA0A0030CA0736304406F8
:10076000031DB32BB42BC82B42084304031DB92B24
:10077000BA2BC82B36309D004908CB3E84001D089B
:10078000831780000130C9070318CA0A0030CA075E
:1007900037304406031DCD2BCE2BE22B42084304F9
:1007A000031DD32BD42BE22B37309D004908CB3EC1
:1007B00084001D08831780000130C9070318CA0A86
:1007C0000030CA0738304406031DE72BE82BFC2B0A
:1007D00042084304031DED2BEE2BFC2B38309D000B
:1007E0004908CB3E84001D08831780000130C907EB
:1007F0000318CA0A0030CA0739304406031D012C09
:10080000022C162C42084304031D072C082C162C1E
:1008100039309D004908CB3E84001D0883178000B5
:100820000130C9070318CA0A0030CA074430440619
:10083000031D1B2C1C2C842C42084304031D212C5B
:10084000222C842C3E083F04031D272C282C842CAA
:1008500040034104031D2D2C2E2C842CC901CA01F8
:100860003C08303E9D001D08A8000A168A15EC239E
:100870000A128A1183160313A401A40A01300A166E
:100880008A1531250A128A110A300A168A110320A4
:100890000A128A110A30831603179D001D08831659
:1008A0000313A40001300A168A1531250A128A1191
:1008B00087300A168A1103200A128A111030831613
:1008C00003179D001D0883160313A40001300A16A8
:1008D0008A1531250A128A118316031728080A1669
:1008E0008A15EE240A128A1183160313A401A40A9E
:1008F00002300A168A1531250A128A1123300A1687
:100900008A1103200A128A11443083160317440601
:10091000031D8B2C8C2CCD2C42084304031D912CE1
:10092000922CCD2C3E083F04031D972C982CCD2CE7
:1009300040084104031D9D2C9E2CCD2C3A033B0402
:10094000031DA32CA42CCD2CC901CA010A168A159B
:10095000EC230A128A1183160313A401A40A01309E
:100960000A168A1531250A128A1101300A168A11CF
:1009700003200A128A1183160313A401A40A023069
:100980000A168A1531250A128A1183160317C20125
:10099000C3010130BA000030BB0044304406031DDF
:1009A000D22CD32C0A2D42084304031DD82CD92C59
:1009B0000A2D3E033F04031DDE2CDF2C0A2D4003CD
:1009C0004104031DE42CE52C0A2DC901CA010A16B5
:1009D0008A15EC230A128A1183160313A401A40AB0
:1009E00001300A168A1531250A128A1141300A1679
:1009F0008A1103200A128A1183160313A401A40A80
:100A000002300A168A1531250A128A118316031735
:100A1000C201C30141304406031D0F2D102D3D2D91
:100A20003E033F04031D152D162D3D2DC901CA019E
:100A30000A168A15EC230A128A1183160313A401DD
:100A4000A40A01300A168A1531250A128A1141308A
:100A50000A168A1103200A128A1183160313A401AD
:100A6000A40A02300A168A1531250A128A11831641
:100A70000317C201C301B001B10142304406031D96
:100A8000422D432DA02D3E033F04031D482D492D2B
:100A9000A02D8B110A168A15EC230A128A118316CF
:100AA0000313A401A40A01300A168A1531250A127B
:100AB0008A1159300A168A1103200A128A1133301A
:100AC000831603179F00BB309E00DF309D009D0BF7
:100AD000672D9E0B672D9F0B672D0A168A15EC2339
:100AE0000A128A1183160313A401A40A01300A16FC
:100AF0008A1531250A128A1164300A168A110320D8
:100B00000A128A1183160313A401A40A02300A16DA
:100B10008A1531250A128A1123300A168A110320F8
:100B20000A128A1183160317C001C101BA01BB0161
:100B3000BE01BF010130C2000030C300C901CA01BB
:100B400043304406031DA52DA62D5E2E3E033F0413
:100B5000031DAB2DAC2D5E2E42084304031DB12DA9
:100B6000B22D5E2E0330BC000030BD0033309D003E
:100B70001D08A0000A168A15EC230A128A11831692
:100B80000313A401A40A01300A168A1531250A129A
:100B90008A116D300A168A1103200A128A11333025
:100BA000831603179F00BB309E00DF309D009D0B16
:100BB000D72D9E0BD72D9F0BD72D831603174A08D1
:100BC000A4004908A3002308303E9D001D08A90089
:100BD00029089D001D0883160313A00000300A1683
:100BE0008A15A4240A128A113130831603179D0036
:100BF0001D0883160313A00001300A168A15A424C9
:100C00000A128A1183160317B701B801282E83161A
:100C100003173708CB3E8400831700089D001D088A
:100C2000AA002A089D001D0883160313A00083163E
:100C300003173708023E0A168A15A4240A128A11DD
:100C4000013083160317B7070318B80A0030B80736
:100C50003808803A9D004A08803A1D02031D322E52
:100C600049083702031C352E362E072E0A168A1520
:100C7000EC230A128A110A168A15EC230A128A1129
:100C800083160313A401A40A01300A168A1531251C
:100C90000A128A1164300A168A1103200A128A1174
:100CA00083160317C001C101BA01BB010130C200A4
:100CB0000030C300BE01BF01C901CA012330440690
:100CC000031D632E642E9C2842084304031D692ED5
:100CD0006A2E9C283E083F04031D6F2E702E9C2810
:100CE00040034104031D752E762E9C28AE01AF01F2
:100CF00000300A168A15F9230A128A11831603177F
:100D00009D001D08AB002B08D03EB200FF30031839
:100D10000030B30033084A06031D902E32084906FE
:100D2000031D932E942EDA2E33084A06031D9A2EA5
:100D300032084906031D9D2E9E2EDE2E02309D0098
:100D40001D08B900C42E8316031739080A168A1520
:100D5000F9230A128A11831603179D001D08AC009F
:100D60003908C93E8400831700082C060319B92EE0
:100D7000BA2EC02E0130AE070318AF0A0030AF07FD
:100D800001309D001D08B9074908013E9D004A0831
:100D90000318013E003E9E001E08803A9F008030EE
:100DA0001F02031DD52E39081D020318D82ED92E77
:100DB000A32EDE2E0130AE000030AF0083160317E5
:100DC0002E082F04031DE52EE62E3C2F8B150A1648
:100DD0008A15EC230A128A1183160313A401A40AAC
:100DE00001300A168A1531250A128A117A300A163C
:100DF0008A1103200A128A113330831603179F00C9
:100E0000BB309E00DF309D009D0B042F9E0B042FF6
:100E10009F0B042F0A168A15EC230A128A118316D7
:100E20000313A401A40A01300A168A1531250A12F7
:100E30008A1113300A168A1103200A128A118316A6
:100E40000313A401A40A02300A168A1531250A12D6
:100E50008A114E300A168A1103200A128A110130B3
:100E600083160317BE000030BF000130831603173E
:100E7000C2000030C3009C288B11FF30BC07031850
:100E8000BD0AFF30BD07C901CA013C08303E9D00C4
:100E90001D08AD000A168A15EC230A128A11831662
:100EA0000313A401A40A01300A168A1531250A1277
:100EB0008A1176300A168A1103200A128A113330F9
:100EC000831603179F00BB309E00DF309D009D0BF3
:100ED000672F9E0B672F9F0B672F0A168A15EC232F
:100EE0000A128A1183160313A401A40A01300A16F8
:100EF0008A1531250A128A110A300A168A1103202E
:100F00000A128A110A30831603179D001D088316E2
:100F10000313A40001300A168A1531250A128A111A
:100F200087300A168A1103200A128A11103083169C
:100F300003179D001D0883160313A40001300A1631
:100F40008A1531250A128A11831603172D080A16ED
:100F50008A15EE240A128A1183160313A401A40A27
:100F600002300A168A1531250A128A1123300A1610
:100F70008A1103200A128A11831603173C083D04C4
:100F8000031DC32FC42FEA2F0A168A15EC230A1259
:100F90008A1183160313A401A40A01300A168A15C4
:100FA00031250A128A1124300A168A1103200A12E6
:100FB0008A1183160313A401A40A02300A168A15A3
:100FC00031250A128A1124300A168A1103200A12C6
:100FD0008A11352F9C280A128A11102883120313B4
:100FE0008601FF30831603138600870183120313E3
:100FF00087017F3083160313A000200881050800B5
:10100000D03407340034003483160313A000201CAE
:101010000A280B280F28831203130816122883129C
:101020000313081283160313A01C172818281C2862
:101030008312031388161F28831203138812831642
:101040000313201D24282528292883120313081799
:101050002C2883120313081383160313A01D3128B1
:101060003228362883120313881739288312031372
:10107000881308008316031343088039C40044080A
:10108000CD004308C4004407C5004508D400C21F72
:101090004A284B284C285414540803195028512826
:1010A0006128540A031D552856285E280030C300C5
:1010B0000030C2000030C1000030C000C217C301C0
:1010C00069280030C3000030C2000030C100003089
:1010D000C0003F088039C4004408CD063F08C40062
:1010E0004407C5004508D500BE1F77287828792811
:1010F0005514550803197D287E288E28550A031D8E
:10110000822883288B280030BF000030BE000030CA
:10111000BD000030BC00BE17BF0196280030BF00E4
:101120000030BE000030BD000030BC003F083E046F
:101130003D043C04031D9D289E28B7280030C300B1
:101140000030C2000030C1000030C0008030C20456
:101150007F30C3044D08C4004408C3044308BF00E3
:101160004208BE004108BD004008BC00162A5408D1
:10117000031DBB28BC28C5280030BF000030BE00BE
:101180000030BD000030BC00162A5408C400C50160
:101190004508C70055084402C600031CC70346089B
:1011A0007F3ECE0047080318013E003ECF004308B3
:1011B000CC004208CB004108CA004008C9000030FA
:1011C000C3000030C2000030C1000030C000003059
:1011D000D3000030D2000030D1000030D000D50163
:1011E0003B2955080319F528F62816290130C400B3
:1011F0000310C90DCA0DCB0DCC0DC40BF82801305E
:10120000C4000310C00DC10DC20DC30DC40B0129D4
:10121000D31F0B290C290D2940140130C4000310E1
:10122000D00DD10DD20DD30DC40B0F293F084C02A8
:10123000031D24293E084B02031D24293D084A02B0
:10124000031D24293C084902031C27292829372982
:1012500053173C08C9023D08031C3D0FCA023E0853
:10126000031C3E0FCB023F08031C3F0FCC02013092
:10127000C4004408D5071A305502031C40294129EF
:10128000F1284C084B044A04490403194829492908
:101290006829501468290130C4000310C00DC10D25
:1012A000C20DC30DC40B4D29D31F572958295929E5
:1012B00040140130C4000310D00DD10DD20DD30D58
:1012C000C40B5B29FF30CE070318CF0AFF30CF07CE
:1012D000C21F6B296C294B29D501D31F7029712995
:1012E0008D29FF305005C400FF305105C500FF3087
:1012F0005205C6007F305305C70047084604450421
:1013000044040319842985298829D501D50A8D2902
:10131000401C8B298C298D29852955080319912971
:101320009229C3290130C007003003180130C107DA
:10133000003003180130C207003003180130C30722
:10134000431CA329A429C3294008C4004108C5009F
:101350004208C6004308C7000130C800470DC70C4B
:10136000C60CC50CC40CC80BAE294708C300460800
:10137000C2004508C1004408C0000130CE07031870
:10138000CF0A0030CF074F08803AFF0080307F023D
:10139000031DCC29FF304E02031CCF29D029DE29A2
:1013A000FF3083160313CE000030CF000030C3009F
:1013B0000030C2000030C1000030C00083160313AB
:1013C0004F08803AFF0080307F02031DE929013079
:1013D0004E020318EC29ED29FA2983160313CE01D6
:1013E000CF010030C3000030C2000030C100003027
:1013F000C000CD01831603134E08C4004408D40076
:10140000541C032A042A062AC2170A2A7F30C40061
:101410004408C2055408C4000310440CC500450824
:10142000C3004D08C4004408C304AE280800831656
:10143000031359088039DE005E08E6005908DE0013
:101440005E07DF005F08E800D81F272A282A292A1C
:101450006814680803192D2A2E2A3E2A680A031DDB
:10146000322A332A3B2A0030D9000030D80000301D
:10147000D7000030D600D817D901462A0030D9004D
:101480000030D8000030D7000030D6005D08803929
:10149000DE005E08E700670866060319502A512A35
:1014A000522A66175D08DE005E07DF005F08E7006E
:1014B000DC1F5B2A5C2A5D2A671467080319612A0E
:1014C000622A722A670A031D662A672A6F2A003079
:1014D000DD000030DC000030DB000030DA00DC171B
:1014E000DD017A2A0030DD000030DC000030DB0056
:1014F0000030DA006808670203187F2A802AC42AAD
:10150000661F832A842A882A8030DE005E08E60669
:101510006808DE005E08E9006708DE005E08E80093
:101520006908DE005E08E7005608DE005E08E90094
:101530005A08DE005E08D6006908DE005E08DA00A0
:101540005708DE005E08E9005B08DE005E08D70091
:101550006908DE005E08DB005808DE005E08E9006E
:101560005C08DE005E08D8006908DE005E08DC006A
:101570005908DE005E08E9005D08DE005E08D9005B
:101580006908DE005E08DD00E9016708DE00DF01B2
:101590005F08E10068085E02E000031CE1036108E7
:1015A000803AFF0080307F02031DD82A1A30600283
:1015B000031CDB2ADC2A192B831603135908580451
:1015C00057045604031DE52AE72A0130E82A0030B3
:1015D000DE005E08E9000030D9000030D80000309D
:1015E000D7000030D6006708DE005E08E800212B37
:1015F000691CFB2AFC2A052B6908DE0003105E0C1F
:101600000138DF005F08E900072B0310E90C561CC6
:101610000A2B0B2B0C2BE9170130DE00590DD90CCE
:10162000D80CD70CD60CDE0B0E2B0130DE005E087A
:10163000E8078316031367086802031C202B212B7D
:10164000F82A661B242B252B702B6808031D292BD9
:101650002A2B332B0030D9000030D8000030D700BF
:101660000030D6009E2C5A08D6075B0803110318D9
:10167000013E03193C2BD7075C0803110318013EF8
:101680000319432BD8075D0803110318013E031902
:101690004A2BD907591C4D2B4E2B242C691C512B3E
:1016A000522B5B2B6908DE0003105E0C0138DF0053
:1016B0005F08E9005D2B0310E90C561C602B612BC1
:1016C000622BE9170130DE00590DD90CD80CD70C6C
:1016D000D60CDE0B642B0130DE005E08E807242CFC
:1016E0005908803AFF005D08803A7F02031D822B73
:1016F0005C085802031D822B5B085702031D822BD6
:101700005A0856020318852B862BDE2BFF30DE008D
:10171000FF30DF00FF30E000FF30E1005A08E20058
:101720005B08E3005C08E4005D08E5005608E2029F
:101730005708031C570F9D2B9E2BE3025808031CD0
:10174000580FA32BA42BE4025908031C590FA92BF3
:10175000AA2BE5026208DE0763080318630FB12BAA
:10176000B22BDF0764080318640FB72BB82BE00710
:1017700065080318650AE1076108D9006008D80008
:101780005F08D7005E08D6008030DE005E08E606FF
:10179000E909E90A6908031DCE2BCF2BEC2B013098
:1017A000D607003003180130D70700300318013086
:1017B000D807003003180130D907EC2B5A08D6029D
:1017C0005B08031C5B0FD7025C08031C5C0FD8028C
:1017D0005D08031C5D0FD9025908580457045604CC
:1017E000031DF32BF42B202C6908031DF82BF92B78
:1017F000202C0030D9000030D8000030D700003055
:10180000D6009E2C0130DE000310D60DD70DD80D6A
:10181000D90DDE0B042CE91F0E2C0F2C102C5614A6
:10182000691C132C142C172C0314E90D192C03100C
:10183000E90D680803191D2C1E2C202C0130E8022C
:10184000D81F232C242C022CE701E91F282C292C3B
:10185000372C69087F3903192E2C2F2C322CE701E5
:10186000E70A372C561C352C362C372C2F2C6708C2
:1018700003193B2C3C2C702C0130D6070030031888
:101880000130D707003003180130D80700300318A3
:101890000130D907591C4D2C4E2C702C5608DE00F7
:1018A0005708DF005808E0005908E1000130E20065
:1018B000610DE10CE00CDF0CDE0CE20B582C610832
:1018C000D9006008D8005F08D7005E08D600680A13
:1018D00003196B2C6C2C702C0130DE005E08E807BD
:1018E000680A0319742C752C7A2C6808031D792C4E
:1018F0007A2C882C0030D9000030D8000030D70076
:101900000030D6006808031D862C872C882CE60141
:10191000681C8B2C8C2C8E2CD817922C7F30DE00E0
:101920005E08D8056808DE0003105E0CDF005F0863
:10193000D900E61F9C2C9D2C9E2CD91708008312E1
:1019400003133D088039C2004208C7003D08C200A9
:101950004207C3004308CD00BC1FAF2CB02CB12CF4
:101960004D144D080319B52CB62CC52C4D0A031D7A
:10197000BA2CBB2CC32C0030BD000030BC000030A2
:10198000BB000030BA00BC17CD2C0030BD000030C9
:10199000BC000030BB000030BA0041088039C200F2
:1019A0004208C7064108C2004207C3004308CC00F2
:1019B000C01FDB2CDC2CDD2C4C144C080319E12C53
:1019C000E22CF12C4C0A031DE62CE72CEF2C003006
:1019D000C1000030C0000030BF000030BE00C017A2
:1019E000F92C0030C1000030C0000030BF000030D2
:1019F000BE004C080319FD2CFE2C032D4D08031DC1
:101A0000022D032D0C2D0030BD000030BC00003035
:101A1000BB000030BA00FF2F3A08C2004208F000B5
:101A200040080A168A15C7240A128A1571088312FB
:101A30000313D3007008D2005208C200C301C401CE
:101A4000C5014508CB004408CA004308C900420844
:101A5000C8005308C200C301C401C5014508D10034
:101A60004408D0004308CF004208CE003B08C20023
:101A70004208F0003F080A168A15C7240A128A1580
:101A8000710883120313D3007008D2005208C200F9
:101A9000C301C401C5014208C80743080311031864
:101AA000013E0319542DC907440803110318013ED0
:101AB00003195B2DCA07450803110318013E0319DA
:101AC000622DCB075308C200C301C401C5014208FF
:101AD000CE07430803110318013E0319702DCF07E9
:101AE000440803110318013E0319772DD007450858
:101AF00003110318013E03197E2DD1073C08C200D3
:101B00004208F0003E080A168A15C7240A128A15F0
:101B1000710883120313D3007008D2005208C20068
:101B2000C301C401C5014208C807430803110318D3
:101B3000013E03199C2DC907440803110318013EF7
:101B40000319A32DCA07450803110318013E031901
:101B5000AA2DCB075308C200C301C401C501420826
:101B6000CE07430803110318013E0319B82DCF0710
:101B7000440803110318013E0319BF2DD00745087F
:101B800003110318013E0319C62DD1070830C20006
:101B90000310C80DC90DCA0DCB0DC20BC82D3B08D3
:101BA000C2004208F0003E080A168A15C7240A122D
:101BB0008A15710883120313D3007008D2005208EB
:101BC000C2005308C300C401C5014208C807430846
:101BD00003110318013E0319EE2DC9074408031130
:101BE0000318013E0319F52DCA0745080311031810
:101BF000013E0319FC2DCB073A08C2004208F00051
:101C00003F080A168A15C7240A128A15710883121A
:101C10000313D3007008D2005208C2005308C30057
:101C2000C401C5014208C807430803110318013E57
:101C300003191B2EC907440803110318013E031999
:101C4000222ECA07450803110318013E0319292E45
:101C5000CB070830C2000310C80DC90DCA0DCB0D4B
:101C6000C20B2B2E3A08C2004208F0003E080A16AA
:101C70008A15C7240A128A15710883120313D30028
:101C80007008D2005208C2005308C300C401C50145
:101C90004208C807430803110318013E0319512ED7
:101CA000C907440803110318013E0319582ECA0737
:101CB000450803110318013E03195F2ECB073B08AB
:101CC000C2004208F00040080A168A15C7240A120A
:101CD0008A15710883120313D3007008D2005208CA
:101CE000C2005308C300C401C5014208CE0743081F
:101CF00003110318013E03197E2ECF074408031178
:101D00000318013E0319852ED00745080311031857
:101D1000013E03198C2ED1073C08C2004208F00096
:101D20003F080A168A15C7240A128A1571088312F9
:101D30000313D3007008D2005208C2005308C30036
:101D4000C401C5014208CE07430803110318013E30
:101D50000319AB2ECF07440803110318013E0319E2
:101D6000B22ED007450803110318013E0319B92EFE
:101D7000D1073C08C2004208F00040080A168A1544
:101D8000C7240A128A15710883120313D30070083E
:101D9000D2005208C2005308C300C401C501083074
:101DA0000310C20DC30DC40DC50DFF3E031DD02E83
:101DB0004208CE07430803110318013E0319E12E20
:101DC000CF07440803110318013E0319E82ED0077A
:101DD000450803110318013E0319EF2ED1074808E7
:101DE000C2004908C3004A08C4004B08C5001830A7
:101DF0000310C50CC40CC30CC20CFF3E031DF82E0F
:101E00004208CE07430803110318013E0319092FA6
:101E1000CF07440803110318013E0319102FD00700
:101E2000450803110318013E0319172FD107083085
:101E3000C2000310C80DC90DCA0DCB0DC20B192F5E
:101E40004D084C07C200C301C30D4208823ED200B8
:101E500043080318013EFF3ED3004B2F0130C20060
:101E60000310CE0DCF0DD00DD10DC20B302FCB1FD7
:101E70003A2F3B2F3C2F4E140130C2000310C80DE7
:101E8000C90DCA0DCB0DC20B3E2FFF30D207031870
:101E9000D30AFF30D307D01F4E2F4F2F2E2FCC0148
:101EA000CB1F532F542F702FFF304805C200FF3037
:101EB0004905C300FF304A05C4007F304B05C5000B
:101EC00045084404430442040319672F682F6B2F0D
:101ED000CC01CC0A702F4E1C6E2F6F2F702F682FE5
:101EE0004C080319742F752FA62F0130CE07003030
:101EF00003180130CF07003003180130D00700303D
:101F000003180130D107511C862F872FA62F4E08AA
:101F1000C2004F08C3005008C4005108C50001307A
:101F2000C600450DC50CC40CC30CC20CC60B912FCA
:101F30004508D1004408D0004308CF004208CE0035
:101F40000130D2070318D30A0030D3075308803A70
:101F5000FF0080307F02031DAF2FFF305202031CB1
:101F6000B22FB32FBE2F7F3083120313D1008030E6
:101F7000D0000030CF000030CE00F32F83120313C7
:101F80005308803AFF0080307F02031DC92F0130C3
:101F900052020318CC2FCD2FD92F003083120313F8
:101FA000D1000030D0000030CF000030CE00C7019B
:101FB000F32F831203135208C2004208CD00FF30F2
:101FC000CE05FF30CF057F30D0050030D1054D1C48
:101FD000EA2FEB2FEC2FD0174D08C2000310420C54
:101FE000C3004308D1004708C2004208D104510889
:101FF000BD005008BC004F08BB004E08BA000800E6
:1020060083160313A700A501A6011E282508270786
:1020160084000A168A1500200A168A110A168A15DD
:10202600EE240A168A11013083160313A507031836
:10203600A60A0030A6072508270784000A168A156F
:1020460000200A168A11003A031D2A282B2809287F
:102056000800F80078080319312832284628F31FAB
:102066003528362846287009FA007109FB007209DE
:10207600FC007309FD00FA0A0319FB0A0319FC0A9E
:102086000319FD0A4E287308FD007208FC0071084A
:10209600FB007008FA007308720471047004031DD3
:1020A600552856285F280030F3000030F200003033
:1020B600F1000030F000E5289630F4007408F900CD
:1020C60071280130F4007408F90701300310FD0C83
:1020D600FC0CFB0CFA0CFF3E031D6928FE307D0547
:1020E600031D76287728642893280130F4007408A5
:1020F600F9070130FA07003003180130FB070030FA
:1021060003180130FC07003003180130FD070130C9
:102116000310FD0CFC0CFB0CFA0CFF3E031D8B2878
:10212600FF307D05031D982899287828A5280130B9
:10213600F9020130F4000310FA0DFB0DFC0DFD0D44
:10214600F40B9E28FC1BA828A928AF280230790288
:102156000318AE28AF289A287918B228B328BB28C6
:10216600FF30FA05FF30FB057F30FC05FF30FD052B
:102176000310F90C7908F400F501F601F70118309F
:102186000310F40DF50DF60DF70DFF3E031DC328E4
:102196007408FA047508FB047608FC047708FD0445
:1021A60078080319D728D828DD28F31FDB28DC2870
:1021B600DD28FD177D08F3007C08F2007B08F1009E
:1021C6007A08F000080083160313B60036080319D0
:1021D600ED28EE280229B11FF128F22802292E093E
:1021E600B8002F09B9003009BA003109BB00B80A96
:1021F6000319B90A0319BA0A0319BB0A0A293108CD
:10220600BB003008BA002F08B9002E08B800310804
:1022160030042F042E04031D112912291B29003016
:10222600B1000030B0000030AF000030AE00A12990
:102236009630B2003208B7002D290130B2003208BC
:10224600B70701300310BB0CBA0CB90CB80CFF3E33
:10225600031D2529FE303B05031D3229332920297C
:102266004F290130B2003208B7070130B8070030F5
:1022760003180130B907003003180130BA070030DF
:1022860003180130BB0701300310BB0CBA0CB90CA4
:10229600B80CFF3E031D4729FF303B05031D54299B
:1022A6005529342961290130B7020130B2000310E3
:1022B600B80DB90DBA0DBB0DB20B5A29BA1B64295C
:1022C60065296B290230370203186A296B295629BA
:1022D60037186E296F297729FF30B805FF30B90501
:1022E6007F30BA05FF30BB050310B70C3708B200C4
:1022F600B301B401B50118300310B20DB30DB40D1E
:10230600B50DFF3E031D7F293208B8043308B90412
:102316003408BA043508BB043608031993299429EE
:102326009929B11F972998299929BB173B08B1000C
:102336003A08B0003908AF003808AE000800B129E5
:102346008312031312109210C82983120313121456
:102356009210C829831203139210C82983160313F7
:102366006E08831603179B009C011C08003A03198C
:10237600BD29C8291B08013A0319A329053A0319DF
:10238600A829143A0319AD29C82983120313121573
:10239600003083160313A700F430A6002430A500EE
:1023A6000030A40083160317480883160313A300FE
:1023B60083160317470883160313A2008316031711
:1023C600460883160313A1008316031745088316D0
:1023D6000313A0000A168A15ED250A168A1183161C
:1023E60003132308B1002208B0002108AF0020081B
:1023F600AE0000300A168A11E6200A168A118316E4
:1024060003133108C3003008C2002F08C1002E088C
:10241600C0006E08831603179B009C0103109B0DDA
:102426009C0D03109B0D9C0D1B0883160313AE0019
:10243600831603171C0883160313AF000030AF1B67
:10244600FF30B000B10001300A168A11E6200A16E4
:102456008A11831603133108BF003008BE002F0807
:10246600BD002E08BC000A128A153A200A168A11E7
:10247600831603133F08DD003E08DC003D08DB0041
:102486003C08DA00BF30D9008030D8000030D700D1
:102496000030D6000A128A1517220A168A118316E8
:1024A600031359088316031793008316031358085A
:1024B6008316031792008316031357088316031710
:1024C60091008316031356088316031790000A1605
:1024D6008A15D1260A168A11831603171008831641
:1024E6000313920008000B1C792A7A2A8F2B061EEA
:1024F6007D2A7E2ADE2A861E812A822ADE2A061F57
:10250600852A862ADE2A861F892A8A2ADE2A6803DF
:102516006904031D8F2A902AA82A02308316031302
:102526006C066D04031D982A992AA82A0130EA0729
:102536000318EB0A0030EB0783120313E801E901E5
:1025460083160313EC01ED01C02A023083126806DC
:102556006904031DAF2AB02AC02A0230831603136A
:102566006C066D04031DB82AB92AC02AFF30EA0793
:102576000318EB0AFF30EB079F2A0A168A15082470
:102586000A168A110A168A151F240A168A1110308D
:1025960083120313E4003930E3000D30E200E20B4E
:1025A600D22AE30BD22AE40BD22A0A168A15DF2393
:1025B6000A168A118D2B861EE12AE22A092B061B92
:1025C600E52AE62A092B861BE92AEA2A092B0A1696
:1025D6008A1508240A168A11013083120313E800AB
:1025E6000030E9000A168A1538240A168A111030B6
:1025F60083120313E4003930E3000D30E200E20BEE
:10260600022BE30B022BE40B022BD82A861A0C2B87
:102616000D2B212B061B102B112B212B861F142B68
:10262600152B212B0A168A1508240A168A11023040
:1026360083120313E8000030E900F52A861A242BDA
:10264600252B462B061B282B292B462B861B2C2B92
:102656002D2B462B0A168A1508240A168A110A16E5
:102666008A1538240A168A11103083120313E400DF
:102676003930E3000D30E200E20B3F2BE30B3F2B3A
:10268600E40B3F2BD82A861F492B4A2B722B861A1E
:102696004D2B4E2B722B061F512B522B722B680380
:1026A6006904031D572B582B5F2B02308316031327
:1026B600EC000030ED006C2B023068066904031D47
:1026C600652B662B6C2B013083160313EC00003050
:1026D600ED000A168A1508240A168A118D2B861B08
:1026E600752B762B8D2B061F792B7A2B8D2B861E21
:1026F6007D2B7E2B8D2B68036904031D832B842B76
:10270600852B662B023068066904031D8B2B8C2BE8
:102716006C2B582B0B109A2B0A168A15DF230A16D8
:102726008A110B100A168A1508240A168A118312B2
:1027360003136708FF0066088A00650E8300FE0E15
:102746007E0E09008312031327088039A800280883
:10275600B1002708A8002807A9002908B800A61F65
:10276600B52BB62BB72B381438080319BB2BBC2B4B
:10277600CC2B380A031DC02BC12BC92B0030A70058
:102786000030A6000030A5000030A400A617A7015F
:10279600D42B0030A7000030A6000030A500003082
:1027A600A40023088039A8002808B1062308A80039
:1027B6002807A9002908B900A21FE22BE32BE42B66
:1027C600391439080319E82BE92BF92B390A031DAB
:1027D600ED2BEE2BF62B0030A3000030A2000030CC
:1027E600A1000030A000A217A301012C0030A30015
:1027F6000030A2000030A1000030A000230822040F
:1028060021042004031D082C092C222C0030A700CB
:102816000030A6000030A5000030A4008030A604D9
:102826007F30A7043108A8002808A7042708A300BA
:102836002608A2002508A1002408A000812D38083A
:10284600031D262C272C302C0030A3000030A200BC
:102856000030A1000030A000812D3808A800A90191
:102866002908AB0039082802AA00031CAB032A0872
:102876007F3EB2002B080318013E003EB300270836
:10288600B0002608AF002508AE002408AD000030D1
:10289600A7000030A6000030A5000030A4000030DC
:1028A600B7000030B6000030B5000030B400B90102
:1028B600A62C39080319602C612C812C0130A80044
:1028C6000310AD0DAE0DAF0DB00DA80B632C01308E
:1028D600A8000310A40DA50DA60DA70DA80B6C2C22
:1028E600B71F762C772C782C24140130A8000310FF
:1028F600B40DB50DB60DB70DA80B7A2C2308300212
:10290600031D8F2C22082F02031D8F2C21082E0257
:10291600031D8F2C20082D02031C922C932CA22C15
:1029260037172008AD022108031C210FAE0222082A
:10293600031C220FAF022308031C230FB002013031
:10294600A8002808B9071A303902031CAB2CAC2C96
:102956005C2C30082F042E042D040319B32CB42C40
:10296600D32C3414D32C0130A8000310A40DA50DCC
:10297600A60DA70DA80BB82CB71FC22CC32CC42CB0
:1029860024140130A8000310B40DB50DB60DB70D13
:10299600A80BC62CFF30B2070318B30AFF30B307E3
:1029A600A61FD62CD72CB62CB901B71FDB2CDC2CD6
:1029B600F82CFF303405A800FF303505A900FF309C
:1029C6003605AA007F303705AB002B082A042904F8
:1029D60028040319EF2CF02CF32CB901B90AF82CB2
:1029E600241CF62CF72CF82CF02C39080319FC2C97
:1029F600FD2C2E2D0130A407003003180130A50749
:102A0600003003180130A607003003180130A7076D
:102A1600271C0E2D0F2D2E2D2408A8002508A900F1
:102A26002608AA002708AB000130AC002B0DAB0C22
:102A3600AA0CA90CA80CAC0B192D2B08A7002A0868
:102A4600A6002908A5002808A4000130B20703182B
:102A5600B30A0030B3073308803AFF0080307F02A4
:102A6600031D372DFF303202031C3A2D3B2D492D15
:102A7600FF3083120313B2000030B3000030A7000A
:102A86000030A6000030A5000030A4008312031316
:102A96003308803AFF0080307F02031D542D013039
:102AA60032020318572D582D652D83120313B201D8
:102AB600B3010030A7000030A6000030A5000030AA
:102AC600A400B101831203133208A8002808B80035
:102AD600381C6E2D6F2D712DA617752D7F30A80011
:102AE6002808A6053808A8000310280CA9002908FC
:102AF600A7003108A8002808A704192C080083128B
:102B06000313071287160717871706188B2D8C2DA8
:102B1600A22D063083160313A2001330A100AD3098
:102B2600A000A00B942DA10B942DA20B942D831223
:102B36000313061C9F2DA02D9A2D4430FF2F8618B7
:102B4600A52DA62DBC2D063083160313A200133027
:102B5600A100AD30A000A00BAE2DA10BAE2DA20B97
:102B6600AE2D83120313861CB92DBA2DB42D233036
:102B7600FF2F0619BF2DC02DD62D06308316031341
:102B8600A2001330A100AD30A000A00BC82DA10BF0
:102B9600C82DA20BC82D83120313061DD32DD42DC9
:102BA600CE2D3030FF2F8619D92DDA2DF02D063097
:102BB60083160313A2001330A100AD30A000A00BB2
:102BC600E22DA10BE22DA20BE22D83120313861D2B
:102BD600ED2DEE2DE82D2A30FF2F8818F32DF42D3C
:102BE6000A2E063083160313A2001330A100AD305F
:102BF600A000A00BFC2DA10BFC2DA20BFC2D83121B
:102C06000313881C072E082E022E7030FF2F08187B
:102C16000D2E0E2E242E063083160313A20013301B
:102C2600A100AD30A000A00B162EA10B162EA20BF4
:102C3600162E83120313081C212E222E1C2E6D30F5
:102C4600FF2F071687120717871706182B2E2C2E0D
:102C5600422E063083160313A2001330A100AD30B6
:102C6600A000A00B342EA10B342EA20B342E8312FF
:102C76000313061C3F2E402E3A2E4330FF2F861894
:102C8600452E462E5C2E063083160313A200133003
:102C9600A100AD30A000A00B4E2EA10B4E2EA20B14
:102CA6004E2E83120313861C592E5A2E542E39305B
:102CB600FF2F06195F2E602E762E0630831603131D
:102CC600A2001330A100AD30A000A00B682EA10B0E
:102CD600682EA20B682E83120313061D732E742E04
:102CE6006E2E3830FF2F8619792E7A2E902E0630CA
:102CF60083160313A2001330A100AD30A000A00B71
:102D0600822EA10B822EA20B822E83120313861D06
:102D16008D2E8E2E882E3730FF2F8818932E942EC8
:102D2600A92E063083160313A2001330A100AD307E
:102D3600A000A00B9C2EA10B9C2EA20B9C2E8312F6
:102D46000313881CA72EA82EA22E082E0818AC2E18
:102D5600AD2EC22E063083160313A2001330A10037
:102D6600AD30A000A00BB52EA10BB52EA20BB52E33
:102D760083120313081CC02EC12EBB2E222E07164B
:102D86008716071387170618C92ECA2EE02E063097
:102D960083160313A2001330A100AD30A000A00BD0
:102DA600D22EA10BD22EA20BD22E83120313061CF7
:102DB600DD2EDE2ED82E4230FF2F8618E32EE42E8F
:102DC600FA2E063083160313A2001330A100AD308D
:102DD600A000A00BEC2EA10BEC2EA20BEC2E831266
:102DE6000313861CF72EF82EF22E3630FF2F061907
:102DF600FD2EFE2E142F063083160313A200133069
:102E0600A100AD30A000A00B062FA10B062FA20B30
:102E1600062F83120313061D112F122F0C2F353088
:102E2600FF2F8619172F182F2E2F06308316031300
:102E3600A2001330A100AD30A000A00B202FA10BE3
:102E4600202FA20B202F83120313861D2B2F2C2F2E
:102E5600262F3430FF2F8818312F322F472F063078
:102E660083160313A2001330A100AD30A000A00BFF
:102E76003A2FA10B3A2FA20B3A2F83120313881C69
:102E8600452F462F402F082E08184A2F4B2F602F0C
:102E9600063083160313A2001330A100AD30A00044
:102EA600A00B532FA10B532FA20B532F83120313E7
:102EB600081C5E2F5F2F592F222E0716871607171D
:102EC60087130618672F682F7E2F06308316031385
:102ED600A2001330A100AD30A000A00B702FA10BF3
:102EE600702FA20B702F83120313061C7B2F7C2FCF
:102EF600762F4130FF2F8618812F822F982F06308C
:102F060083160313A2001330A100AD30A000A00B5E
:102F16008A2FA10B8A2FA20B8A2F83120313861CDA
:102F2600952F962F902F3330FF2F06199B2F9C2F0E
:102F3600B22F063083160313A2001330A100AD3062
:102F4600A000A00BA42FA10BA42FA20BA42F8312C9
:102F56000313061DAF2FB02FAA2F3230FF2F86196D
:102F6600B52FB62FCC2F063083160313A2001330CD
:102F7600A100AD30A000A00BBE2FA10BBE2FA20B4F
:102F8600BE2F83120313861DC92FCA2FC42F3130BB
:102F9600FF2F8818CF2FD02FE52F06308316031367
:102FA600A2001330A100AD30A000A00BD82FA10BBA
:102FB600D82FA20BD82F83120313881CE32FE42FDC
:102FC600DE2F082E0818E82FE92FFE2F063083166D
:102FD6000313A2001330A100AD30A000A00BF12F07
:102FE600A10BF12FA20BF12F83120313081CFC2F48
:102FF600FD2FF72F222E6E30080018308A000408A5
:10300600840A8207003443343A3420344334483443
:103016004F345334453420345034413453345334CC
:1030260057344F3452344434003441342034543409
:1030360048344134593420345034413453345334B1
:1030460057344F34523444342034003445345234E7
:1030560052344F3452342034203420342034453412
:10306600523452344F3452340034573445344C348D
:103076004C3443344F344D344534203448344F3483
:103086004D34453400344E344534573420345034AE
:1030960041345334533457344F3452344434003467
:1030A600423420344B3448344F3441342034433492
:1030B60055344134003443344C344F34533445345E
:1030C600203444344F344F3452340034573445346A
:1030D6004C344C3443344F344D344534003443344B
:1030E6004F344D3450344C34453454344534003424
:1030F6004E344F34543420344F34503445344E34E7
:10310600003444344F3457344E343A342034333454
:10311600003444344F3457344E3420343A34003477
:1037BE0083120313871007100800831203131715C3
:1037CE009715831603130711080000300A168A1581
:1037DE0084240A168A1501300A168A1584240A16BC
:1037EE008A15080083160313A000200883120317FE
:1037FE008D00831603178C130C14831203170C08F9
:10380E000800831603136B08803AFF0080307F0296
:10381E00031D132C01306A02031C162C172C1B2CB3
:10382E008312031305141E2C8312031305100800B4
:10383E0083120313871407106430D4000030D500B0
:10384E000A168A154D270A168A1583120313550870
:10385E00DF005408DE000A168A156A240A168A1535
:10386E00080083120313871007146430D40000304D
:10387E00D5000A168A154D270A168A1583120313C8
:10388E005508DF005408DE000A168A156A240A1647
:10389E008A1508006E3083160313A3002308A400B4
:1038AE00622C0A168A1182250A168A1583160313AC
:1038BE00A3002308A4006E3024060319672C682C7D
:1038CE00582C24080800831203135E186F2C732CD7
:1038DE00831203131716762C8312031317129712E3
:1038EE005F08E1005E08E0000310E10CE00C03103D
:1038FE00E10CE00C60089500080083160313A3008A
:10390E008312031308118316031323080A128A1550
:10391E0004200A168A158312031388151530831690
:10392E000313A200C530A100A10B9B2CA20B9B2C54
:10393E00A02C831203138811080083160313A10011
:10394E00831603178C18AC2CAD2CA72C83160313DF
:10395E002108831203178D00831603132008831288
:10396E0003178C00831603178C130C158B1355300D
:10397E008D00AA308D008C148B170C118C10080042
:10398E00F800F401F5017008F200F3017208F60078
:10399E007308F700781CD42CD52CDB2C7608F40792
:1039AE000318F50A7708F50701300310F60DF70D29
:1039BE00FF3E031DDC2C0310F80C7808031DE82CC9
:1039CE00E92CD12C7508F1007408F000080083165C
:1039DE000313A40024080F39A1002108A200240813
:1039EE00F039A1002108A3008312031308158316D2
:1039FE0003132308A10004300310A10CFF3E031D86
:103A0E00032D21080A128A1504200A168A1583121C
:103A1E0003138815343083160313A100A10B152D43
:103A2E0000008312031388118316031322080A124F
:103A3E008A1504200A168A1583120313881534304A
:103A4E0083160313A100A10B2A2D0000831203136A
:103A5E008811080083160313A7002703031D382DB2
:103A6E00392D5E2D24087F3EA5002508AA002A08C0
:103A7E00A50004300310A50CFF3E031D412D2508A3
:103A8E00A6002608A8002A080F39A5002508A900B7
:103A9E0028080A168A1584240A168A158316031313
:103AAE0029080A168A1584240A168A15882D0230CA
:103ABE002706031D632D642D882D2408BF3EA50007
:103ACE002508AA002A08A50004300310A50CFF3E05
:103ADE00031D6C2D2508A6002608A8002A080F39FC
:103AEE00A5002508A90028080A168A1584240A1696
:103AFE008A158316031329080A168A1584240A16B2
:103B0E008A15080000300A128A1504200A168A1532
:103B1E00683083160313A500E330A400A40B952D83
:103B2E00A50B952D9A2D03300A168A1584240A1694
:103B3E008A151A3083160313A500F730A400A40BC0
:103B4E00A62DA50BA62DAB2D03300A168A1584249F
:103B5E000A168A153A3083160313A5002230A400E4
:103B6E00A40BB72DA50BB72D000003300A168A152E
:103B7E0084240A168A1502300A168A1584240A1617
:103B8E008A1502300A168A1584240A168A150830F8
:103B9E000A168A1584240A168A1500300A168A1502
:103BAE0084240A168A150C300A168A1584240A16DD
:103BBE008A1500300A168A1584240A168A150630CC
:103BCE000A168A1584240A168A15080000308316F0
:103BDE000313AC000030AB000030AA000030A90087
:103BEE0023082204210420040319FE2DFF2D4C2E40
:103BFE00AD01AD0A0F2E0130A8000310A00DA10DCE
:103C0E00A20DA30DA80B042E0130A8002808AD07A5
:103C1E00A31F122E132E022E0130A8000310A90D81
:103C2E00AA0DAB0DAC0DA80B152E23082702031DF4
:103C3E002A2E22082602031D2A2E21082502031DE4
:103C4E002A2E20082402031C2D2E2E2E3D2E200857
:103C5E00A4022108031C210FA5022208031C220F17
:103C6E00A6022308031C230FA702291401300310F8
:103C7E00A30CA20CA10CA00CFF3E031D3E2E013086
:103C8E00AD02031D4B2E4C2E132E2C08A3002B0819
:103C9E00A2002A08A1002908A00008000310831220
:103CAE0003133C0D3D0DBE003E08C4004408031D29
:103CBE00612E622E6B2E0030BD000030BC00003035
:103CCE00BB000030BA00D02E3A08BE003B08BF0041
:103CDE003C08C0003D08C1001F300310C10CC00CD1
:103CEE00BF0CBE0CFF3E031D742E3E08C2004208E0
:103CFE00C300BC17FF30BA05FF30BB05FF30BC0553
:103D0E000030BD059630C402C41F8E2E8F2EA92EF4
:103D1E004408803A973E0318952E962E972E622EC3
:103D2E0001300310BD0CBC0CBB0CBA0CFF3E031DC6
:103D3E00982E0130BE003E08C407031DA72EA82EE4
:103D4E00972EC02E20304402031CAE2EAF2EBB2E5B
:103D5E00622E0130BE000310BA0DBB0DBC0DBD0DA1
:103D6E00BE0BB22E0130C4024408031DBF2EC02E5E
:103D7E00B02E43080319C42EC52ED02EBA09BB0986
:103D8E00BC09BD09BA0A0319BB0A0319BC0A0319F7
:103D9E00BD0A0800031083160317120D130D9400AD
:103DAE0014089A001A08031DDD2EDE2EE72E0030B1
:103DBE0093000030920000309100003090004C2FA4
:103DCE001008940011089500120896001308970029
:103DDE001F300310970C960C950C940CFF3E031D90
:103DEE00F02E14089800180899009217FF309005CD
:103DFE00FF309105FF3092050030930596309A0200
:103E0E009A1F0A2F0B2F252F1A08803A973E031858
:103E1E00112F122F132FDE2E01300310930C920C44
:103E2E00910C900CFF3E031D142F013094001408CA
:103E3E009A07031D232F242F132F3C2F20301A02F5
:103E4E00031C2A2F2B2F372FDE2E01309400031048
:103E5E00900D910D920D930D940B2E2F01309A0211
:103E6E001A08031D3B2F3C2F2C2F19080319402F26
:103E7E00412F4C2F9009910992099309900A031929
:103E8E00910A0319920A0319930A08004B30831200
:103E9E000313A7007430A6002430A5000030A40040
:103EAE00831603174808F3004708F2004608F1008E
:103EBE004508F00000300A168A112C200A168A15C1
:103ECE00730883120313A3007208A2007108A100E5
:103EDE007008A0000A168A11A5230A168A158312E5
:103EEE0003132308C1002208C0002108BF002008C8
:103EFE00BE005408F0005508F100F201F301003045
:103F0E000A168A112C200A168A15730883120313B7
:103F1E00A7007208A6007108A5007008A400423020
:103F2E00A300C830A2000030A1000030A0000A1685
:103F3E008A11A5230A168A15831203132308BD00BE
:103F4E002208BC002108BB002008BA000A128A15FC
:103F5E009F240A168A15831203133D08DD003C08C0
:103F6E00DC003B08DB003A08DA005D08A7005C08BD
:103F7E00A6005B08A5005A08A400831603136E085A
:103F8E0083120313D600D701D801D9015908F300C3
:103F9E005808F2005708F1005608F00001300A16D2
:103FAE008A112C200A168A15730883120313A30094
:103FBE007208A2007108A1007008A0000A168A11EA
:103FCE00A5230A168A15831203132308BD0022089F
:103FDE00BC002108BB002008BA000A168A15552617
:103FEE000A168A15831203133B08D5003A08D4002B
:023FFE000800B9
:02400E00723FFF
:00000001FF
